:100000000C9434000C9451000C9451000C94510049
:100010000C9451000C9451000C9451000C9451001C
:100020000C9451000C9451000C9451000C9451000C
:100030000C9451000C9451000C9451000C945100FC
:100040000C9451000C9451000C9451000C945100EC
:100050000C9451000C946D020C9451000C945100BE
:100060000C9451000C94510011241FBECFEFD8E026
:10007000DEBFCDBF12E0A8E0B2E001C01D92AC30FF
:10008000B107E1F712E0A0E0B1E0E4EBF3E102C078
:1000900005900D92A830B107D9F70E94B3020C94D5
:1000A000D8090C940000DF93CF93CDB7DEB76097EB
:1000B0000FB6F894DEBF0FBECDBF9C878B877E87BF
:1000C0006D87588B4F872B853C858D859E85A90133
:1000D000481B590BCA01AA2797FDA095BA2FBC014E
:1000E000CD010E940507DC01CB0189839A83AB8394
:1000F000BC832F8538898D859E85A901481B590BA6
:10010000CA01AA2797FDA095BA2FBC01CD010E9474
:100110000507DC01CB018D839E83AF83B88769819E
:100120007A818B819C812D813E814F8158850E94EF
:10013000C705DC01CB01BC01CD0120E030E04FE779
:1001400053E40E94CD04DC01CB01BC01CD010E942F
:100150006507DC01CB019A87898789859A85992370
:100160001CF480E090E00BC089859A858F3F910553
:1001700021F01CF08FEF90E002C089859A8560968F
:100180000FB6F894DEBF0FBECDBFCF91DF910895BB
:100190000F931F93DF93CF93CDB7DEB7AE970FB614
:1001A000F894DEBF0FBECDBF9EA78DA78DA59EA5DF
:1001B000AA2797FDA095BA2FBC01CD010E94050783
:1001C000DC01CB01BC01CD0120E030E04FE753E47E
:1001D0000E94C705DC01CB018B839C83AD83BE836A
:1001E0006B817C818D819E8120E030E048EC53E47E
:1001F0000E94CD04DC01CB01BC01CD0120E030E048
:1002000048EC52E40E946F04DC01CB01BC01CD013B
:100210000E946507DC01CB0198878F838F819885C9
:10022000AA2797FDA095BA2FBC01CD010E94050712
:100230009B01AC0160E070E080E89FE30E94C7058D
:10024000DC01CB0189879A87AB87BC8769857A8572
:100250008B859C8520E030E040E050E40E94C7059B
:10026000DC01CB01BC01CD0120E030E04AE754E4E1
:100270000E94CD04DC01CB018D879E87AF87B88BB0
:100280001A82198217C183E290E023E230E0F9017B
:1002900020812062FC0120838D859E85AF85B889F1
:1002A000898B9A8BAB8BBC8B69897A898B899C896A
:1002B00020E030E04AE755E40E94CD04DC01CB01A8
:1002C0008D8B9E8BAF8BB88F11E06D897E898F8966
:1002D000988D20E030E040E85FE30E94D506882357
:1002E0000CF010E0112329F081E090E09A8F898FC3
:1002F00046C011E06D897E898F89988D20E03FEF9F
:100300004FE757E40E94750618160CF010E0112311
:1003100061F169897A898B899C8920E030E040E22B
:1003200051E40E94CD04DC01CB01BC01CD010E944F
:10033000F902DC01CB019A8F898F12C080E991E02C
:100340009C8F8B8F8B8D9C8D8C01C8010197F1F751
:100350008C011C8F0B8F898D9A8D01979A8F898FB5
:10036000898D9A8D009751F717C06D897E898F8985
:10037000988D0E94F902DC01CB019A8F898F898DBB
:100380009A8D9E8F8D8F8D8D9E8D8C01F80131976A
:10039000F1F78F011E8F0D8F83E290E023E230E0B2
:1003A000F90120812F7DFC0120838D859E85AF85FD
:1003B000B8898F8F98A3A9A3BAA36F8D78A189A1BB
:1003C0009AA120E030E04AE755E40E94CD04DC0128
:1003D000CB018BA39CA3ADA3BEA311E06BA17CA119
:1003E0008DA19EA120E030E040E85FE30E94D506A9
:1003F00088230CF010E0112329F081E090E098A709
:100400008FA346C011E06BA17CA18DA19EA120E02D
:100410003FEF4FE757E40E94750618160CF010E006
:10042000112361F16F8D78A189A19AA120E030E0BC
:1004300040E251E40E94CD04DC01CB01BC01CD01BE
:100440000E94F902DC01CB0198A78FA312C080E9BA
:1004500091E09AA789A789A59AA58C01C80101975F
:10046000F1F78C011AA709A78FA198A5019798A762
:100470008FA38FA198A5009751F717C06BA17CA1FE
:100480008DA19EA10E94F902DC01CB0198A78FA348
:100490008FA198A59CA78BA78BA59CA58C01F80183
:1004A0003197F1F78F011CA70BA789819A810196DB
:1004B0009A83898329813A818F8198852817390702
:1004C0000CF4E1CEAE960FB6F894DEBF0FBECDBFF2
:1004D000CF91DF911F910F9108951F920F920FB648
:1004E0000F9211242F933F938F939F93EF93FF933A
:1004F000DF93CF9300D000D0CDB7DEB788E790E090
:10050000FC018081882F90E09A83898389E790E0BD
:10051000FC018081882F90E09C838B838B819C8160
:10052000382F222789819A81820F931F90930B0283
:1005300080930A028AE790E02AE730E0F9012081FF
:100540002064FC0120832496DEBFCDBFCF91DF91D4
:10055000FF91EF919F918F913F912F910F900FBE3F
:100560000F901F901895DF93CF93CDB7DEB784E23D
:1005700090E024E230E0F90120812062FC01208338
:1005800084E690E024E630E0F90120812E7FFC0132
:1005900020838AE790E02AE730E0F90120812F6884
:1005A000FC0120838CE790E02CE730E0F90120810A
:1005B0002164FC0120838AE790E02AE730E0F9011A
:1005C00020812064FC01208380910A0290910B021B
:1005D0006BE672E04AE753E00E94530090930902F1
:1005E0008093080280910802909109020E94C8003D
:1005F000EBCFEF92FF920F931F937B018C0120E0D2
:1006000030E040E05FE40E94A50687FD11C0C8010C
:10061000B70120E030E040E05FE40E949C040E94CB
:1006200065079B01AC01205030404040504806C057
:10063000C801B7010E9465079B01AC01B901CA015D
:100640001F910F91FF90EF900895A0E0B0E0EBE2D2
:10065000F3E00C94A509FC01EA018081823008F4E2
:1006600038C1DB019C91923008F430C1843059F4D8
:10067000943009F02EC1918111968C9111979817A1
:1006800009F021C126C1943009F420C19230B1F49F
:10069000823009F01EC1CA01AF0128E0DA010D90D5
:1006A000AD01DC010D92CD012150C1F7DB011196A6
:1006B0008C9111979181892389830AC1823009F431
:1006C00005C1C280D380DB0112966D907C90139798
:1006D00024813581468157811496ED90FD900D91CE
:1006E0001C911797C601861997095C0197FF04C0F2
:1006F000AA24BB24A81AB90AB0E2AB16B1040CF0C4
:1007000061C0181619066CF5370148010A2C04C09F
:1007100096948794779467940A94D2F781E090E056
:10072000A0E0B0E00A2C04C0880F991FAA1FBB1FCD
:100730000A94D2F70197A109B1098E219F21A02324
:10074000B123EE24FF248701E3940097A105B105AE
:1007500019F4EE24FF248701E628F728082919292F
:100760003CC00097D1F1CA0CDB1C39014A010A2CAC
:1007700004C096948794779467940A94D2F781E0A2
:1007800090E0A0E0B0E00A2C04C0880F991FAA1FD7
:10079000BB1F0A94D2F70197A109B10982239323C1
:1007A000A423B52321E030E040E050E00097A1050C
:1007B000B10519F420E030E0A9012629372948299C
:1007C00059290BC06C147D0424F4EE24FF24870106
:1007D00004C0630120E030E0A9018181FB01918127
:1007E000891709F445C0882349F0D801C701821B45
:1007F000930BA40BB50B9C01AD0104C02E193F094E
:10080000400B510B57FD04C01982DB82CA820BC01A
:1008100081E08983DB82CA8250954095309521958D
:100820003F4F4F4F5F4F2C833D834E835F830DC0FF
:10083000880F991FAA1FBB1F8C839D83AE83BF8324
:100840008A819B8101979B838A838C819D81AE8164
:10085000BF819C01AD0121503040404050402F3FAE
:10086000EFEF3E07EFEF4E07EFE35E0708F30BC035
:100870008983DB82CA822E0D3F1D401F511F2C83AE
:100880003D834E835F8383E088832C813D814E814D
:100890005F8157FF1DC0DA01C90181709070A0709F
:1008A000B0705695479537952795822B932BA42B9F
:1008B000B52B8C839D83AE83BF838A819B810196F8
:1008C0009B838A8305C0E0E0F1E003C0FB0101C027
:1008D000FE01CF01CDB7DEB7EEE00C94C109A0E276
:1008E000B0E0E5E7F4E00C94AD0969837A838B838B
:1008F0009C832D833E834F83588789E0E82EF12C1B
:10090000EC0EFD1ECE010196B7010E94DF088E019C
:100910000F5E1F4FCE010596B8010E94DF08C70188
:10092000B801AE01475E5F4F0E9425030E94110887
:10093000A096E6E00C94C909A0E2B0E0E2EAF4E097
:100940000C94AD0969837A838B839C832D833E83CA
:100950004F8358878E01075F1F4FCE010196B80164
:100960000E94DF0891E1E92EF12CEC0EFD1ECE0174
:100970000596B7010E94DF088A8991E089278A8B52
:10098000C801B701AE01475E5F4F0E9425030E9478
:100990001108A096E6E00C94C909A0E2B0E0E3EDEE
:1009A000F4E00C94A10969837A838B839C832D8363
:1009B0003E834F835887CE010196BE01675F7F4F0C
:1009C0000E94DF08CE010596BE016F5E7F4F0E9438
:1009D000DF089985923078F089898230C0F09430B0
:1009E00019F4823041F4CBC0843019F4923079F498
:1009F000C6C0923051F481E02A859A89291709F4FA
:100A000080E08A87CE010996BCC0823051F481E033
:100A10002A859A89291709F480E08A8BCE014196AC
:100A2000B0C06D847E848F849888ED88FE880F899D
:100A3000188DE0E2F0E080E090E0DC01AA24BB2425
:100A4000650120E030E0A901B301617070706115AB
:100A50007105D1F02E0D3F1D401F511F15012601BC
:100A6000280E391E4A1E5B1E81E090E0A0E0B0E037
:100A70002E153F054007510718F080E090E0DC019B
:100A8000820D931DA41DB51DAA0CBB1CCC1CDD1C26
:100A900017FF09C061E0262E312C412C512CA228D1
:100AA000B328C428D528319749F0EE0CFF1C001F4D
:100AB000111F9694879477946794C6CF6B897C892D
:100AC000EB85FC856E0F7F1F6E5F7F4F7C8F6B8F7A
:100AD00061E0EA857A89E71709F460E06A8F6B8D37
:100AE0007C8D10C0FC01E170F070309729F05695B4
:100AF0004795379527955068B695A795979587950B
:100B00006F5F7F4FB7FDEECF0CC0880F991FAA1FF4
:100B1000BB1F57FD8160220F331F441F551F6150BB
:100B200070408030E0E09E07E0E0AE07E0E4BE0702
:100B300060F36B8F7C8F6FE7E62EF12C012D112D6A
:100B4000E822F9220A231B2360E4E616F1040105DA
:100B5000110561F487FD0AC02115310541055105D4
:100B600029F0805C9F4FAF4FBF4F80788D8F9E8F55
:100B7000AF8FB8A383E0898FCE01499602C080E091
:100B800091E00E941108A096E2E10C94BD09A8E151
:100B9000B0E0EDECF5E00C94A90969837A838B83CE
:100BA0009C832D833E834F8358878E01075F1F4FA1
:100BB000CE010196B8010E94DF0881E1E82EF12CF8
:100BC000EC0EFD1ECE010596B7010E94DF08998547
:100BD000923008F483C08989823008F47BC02A856A
:100BE0003A8923272A87943011F0923021F49817FC
:100BF00009F06CC071C0843039F41D861E861F86D2
:100C0000188A1C861B866AC0823019F484E08987A2
:100C100065C08B859C852B893C89821B930B9C87A7
:100C20008B872D853E854F855889ED88FE880F89F5
:100C3000188D2E153F054007510738F4220F331F3A
:100C4000441F551F01979C878B876FE170E0A12C93
:100C5000B12CC12CA0E4DA2E80E090E0DC012E154E
:100C60003F054007510740F08A299B29AC29BD293F
:100C70002E193F09400B510BD694C794B794A794F3
:100C8000220F331F441F551F6150704041F76FE71B
:100C9000E62EF12C012D112DE822F9220A231B2327
:100CA00060E4E616F1040105110561F487FD0AC050
:100CB000211531054105510529F0805C9F4FAF4F4B
:100CC000BF4F80788D879E87AF87B88B8E01075F77
:100CD0001F4F04C0870102C000E011E0C8010E945C
:100CE00011086896EAE00C94C509A8E1B0E0EBE7CA
:100CF000F6E00C94AD0969837A838B839C832D8302
:100D00003E834F8358878E01075F1F4FCE010196A8
:100D1000B8010E94DF0881E1E82EF12CEC0EFD1EE7
:100D2000CE010596B7010E94DF088985823040F028
:100D30008989823028F0C801B7010E94480901C0A2
:100D40008FEF6896E6E00C94C909A8E1B0E0EBEA01
:100D5000F6E00C94AD0969837A838B839C832D83A1
:100D60003E834F8358878E01075F1F4FCE01019648
:100D7000B8010E94DF0881E1E82EF12CEC0EFD1E87
:100D8000CE010596B7010E94DF088985823040F0C8
:100D90008989823028F0C801B7010E94480901C042
:100DA0008FEF6896E6E00C94C909A8E1B0E0EBED9E
:100DB000F6E00C94AD0969837A838B839C832D8341
:100DC0003E834F8358878E01075F1F4FCE010196E8
:100DD000B8010E94DF0881E1E82EF12CEC0EFD1E27
:100DE000CE010596B7010E94DF088985823040F068
:100DF0008989823028F0C801B7010E94480901C0E2
:100E000081E06896E6E00C94C909A8E0B0E0EBE068
:100E1000F7E00C94AD097B018C0183E08983D80154
:100E2000C7018827B7FD83959927AA27BB27282FB5
:100E30008A83E114F1040105110519F482E0898324
:100E400037C08EE190E09C838B83222389F080E081
:100E5000E81680E0F80680E0080780E8180769F1E6
:100E600010950095F094E094E11CF11C011D111DFA
:100E7000ED82FE820F831887C801B7010E94B70771
:100E80009C01215030401216130694F4022E04C027
:100E9000EE0CFF1C001F111F0A94D2F7ED82FE8298
:100EA0000F8318878EE190E0821B930B9C838B83CA
:100EB000CE0101960E94110804C060E070E080E05D
:100EC0009FEC2896E6E00C94C909ACE0B0E0EBE6B4
:100ED000F7E00C94B10969837A838B839C83CE01FC
:100EE0000196BE016B5F7F4F0E94DF088D818230CB
:100EF00081F1823070F1843021F48E81882369F190
:100F00000AC02F81388537FD24C06E812F3131050D
:100F10003CF0662311F120E030E040E050E821C0D1
:100F20008EE190E0821B930B29853A854B855C8589
:100F300004C056954795379527958A95D2F766232D
:100F400081F050954095309521953F4F4F4F5F4F21
:100F500008C020E030E0A90104C02FEF3FEF4FEFC1
:100F60005FE7B901CA012C96E2E00C94CD09AF927B
:100F7000BF92CF92DF92EF92FF920F931F937B016C
:100F80008C0180E0E81680E0F80681E0080780E048
:100F9000180758F4EFEFEE16F1040105110509F0FA
:100FA00090F480E090E0DC0117C0F0E0EF16F0E094
:100FB000FF06F0E00F07F1E01F0750F480E190E03A
:100FC000A0E0B0E009C088E090E0A0E0B0E004C09C
:100FD00088E190E0A0E0B0E020E230E040E050E0C6
:100FE000281B390B4A0B5B0B5701680104C0D694D0
:100FF000C794B794A7948A95D2F7D601C501885FA4
:101000009E4FFC018081281B310941095109C9010A
:101010001F910F91FF90EF90DF90CF90BF90AF9016
:101020000895EF92FF920F931F93CF93DF93FC01EC
:10103000248135814681578161818081823020F40D
:101040004061EFEFF0E0A3C0843009F49BC0823030
:1010500009F492C0211531054105510509F48FC0ED
:101060000280F381E02D8FEFE238F8070CF05AC0D0
:10107000C2E8DFEFCE1BDF0BCA31D1056CF5790179
:101080008A010C2E04C016950795F794E7940A94EC
:10109000D2F781E090E0A0E0B0E00C2E04C0880F11
:1010A000991FAA1FBB1F0A94D2F70197A109B10982
:1010B00082239323A423B52321E030E040E050E0D5
:1010C0000097A105B10519F420E030E0A9012E290F
:1010D0003F29402B512B03C020E030E0A901DA0169
:1010E000C9018F779070A070B07080349105A10510
:1010F000B10539F427FF09C0205C3F4F4F4F5F4FC8
:1011000004C0215C3F4F4F4F5F4FE1E0F0E02030E3
:1011100080E0380780E0480780E4580728F5E0E0E1
:10112000F0E022C0E038F1056CF5E158FF4FDA013C
:10113000C9018F779070A070B07080349105A105BF
:10114000B10539F427FF09C0205C3F4F4F4F5F4F77
:1011500004C0215C3F4F4F4F5F4F57FF05C056956E
:10116000479537952795319687E05695479537955A
:1011700027958A95D1F70BC0E0E0F0E005C0E0E0EC
:10118000F0E005C0EFEFF0E020E030E0A9018E2FA5
:10119000879588278795942F9F776795662767950A
:1011A000E695E22EA92FA82BFE2FF62B622F732F88
:1011B0008A2F9F2FCDB7DEB7E6E00C94C909DC017A
:1011C000FB012C9111963C91119712968C911297DC
:1011D000482F4F7750E0982F991F9927991F139602
:1011E0006C911397862F880F892B90E0661F6627D6
:1011F000661F6183009739F52115310541055105B9
:1012000011F482E029C082E89FEF9383828367E034
:10121000220F331F441F551F6A95D1F783E0808347
:1012200009C0220F331F441F551F828193810197EC
:1012300093838283203080E0380780E0480780E491
:10124000580778F320C08F3F910579F421153105B7
:101250004105510519F484E08083089544FF03C0DB
:1012600081E0808310C010820EC08F57904093831E
:10127000828383E0808387E0220F331F441F551F42
:101280008A95D1F750642483358346835783089524
:10129000FC01DB019081923008F449C08C918230CE
:1012A00008F445C0943051F461818430B1F5119651
:1012B0002C91119730E0261B310941C0843021F078
:1012C000923041F48230B1F111968C9111978823BC
:1012D000A1F12DC06181823001F111968C9111979D
:1012E0006817D9F42281338112968D919C911397BE
:1012F0008217930794F028173907BCF024813581B1
:101300004681578114968D919D910D90BC91A02D91
:1013100082179307A407B50718F4662341F00DC0A0
:10132000281739074A075B0728F4662331F021E0C4
:1013300030E005C020E030E002C02FEF3FEFC901F0
:1013400008952F923F924F925F926F927F928F9269
:101350009F92AF92BF92CF92DF92EF92FF920F9344
:101360001F93CF93DF93CDB7DEB7CA1BDB0B0FB64E
:10137000F894DEBF0FBECDBF09942A88398848880B
:101380005F846E847D848C849B84AA84B984C884A1
:10139000DF80EE80FD800C811B81AA81B981CE0F98
:1013A000D11D0FB6F894DEBF0FBECDBFED0108957D
:0413B000F894FFCFDF
:1013B4000000000000000000000102020303030318
:1013C40004040404040404040505050505050505D1
:1013D40005050505050505050606060606060606B1
:1013E4000606060606060606060606060606060699
:1013F4000606060606060606070707070707070781
:101404000707070707070707070707070707070768
:101414000707070707070707070707070707070758
:101424000707070707070707070707070707070748
:101434000707070707070707080808080808080830
:101444000808080808080808080808080808080818
:101454000808080808080808080808080808080808
:1014640008080808080808080808080808080808F8
:1014740008080808080808080808080808080808E8
:1014840008080808080808080808080808080808D8
:1014940008080808080808080808080808080808C8
:1014A40008080808080808080808080808080808B8
:0814B4000808080808080808F0
:00000001FF
